:040000005DEF00F0C0
:100008002E002E002E002E002E005A022E002E004A
:1000180023052E002E002E002E002E002E002E006E
:100028002E002E002E002E002E002E002E002E0058
:100038002E002E002E002E002E002E002E002E0048
:1000480084042E000B052E002E002E002E002E00FC
:100058002E002E002E002E002E002E002E002E0028
:100068002E002E002E002E002E002E002E002E0018
:100078002E002E002E002E002E002E002E002E0008
:100088002E002E002E002E002E002E002E002E00F8
:100098002E002E002E002E002E002E002E002E00E8
:1000A8002E002E002E002E002E002E002E002E00D8
:1000B800FF0059EF08F042AE439242BE05D04250CD
:1000C80008E14104D8B005D0000E736F010E726FBD
:1000D80004D041C572F542C573F53FC574F540C5F6
:1000E80075F562C576F563C577F564C578F565C5B8
:1000F80079F566C57AF567C57BF568C57CF569C588
:100108007DF5000E7F6F1F0E7E6F000EC76F76D0D5
:100118007E07D8A07F07A80E7E25D96E050E7F2101
:10012800DA6E76C519F577C51AF578C51BF579C560
:100138001CF57AC51DF57BC51EF57CC51FF57DC56B
:1001480020F50A0E216E000E226E000E236E000EA0
:10015800246E000E256E000E266E000E276E000E11
:10016800286E5CEC04F019C56AF51AC56BF51BC559
:100178006CF51CC56DF51DC56EF51EC56FF51FC563
:1001880070F520C571F56A51300FDF6E7207D8A07F
:1001980073077407D8A0750776C519F577C51AF5DA
:1001A80078C51BF579C51CF57AC51DF57BC51EF507
:1001B8007CC51FF57DC520F50A0E216E000E226E46
:1001C800000E236E000E246E000E256E000E266EA5
:1001D800000E276E000E286E34EC03F019C576F574
:1001E8001AC577F51BC578F51CC579F51DC57AF5CF
:1001F8001EC57BF51FC57CF520C57DF57E517F1199
:10020800D8B41AD076517711781179117A117B11F7
:100218007C117D11D8A47CD773BF05D0735102E13E
:100228007205D8B075D775BF07D0755103E174054D
:10023800D8A002D043B26CD760C52AF561C52BF5AA
:10024800A80E7E252C6E050E7F212D6E74C52EF509
:1002580075C52FF559EC05F02AC560F52BC561F574
:100268001200610008F6D9F461000CF6DAF4DEC475
:10027800F6F4DDC4F7F40800F550250AD8A4A2D096
:10028800610008F6D9F461000CF6DAF4DE2A000EF3
:10029800DD22000E406E000E3F6E3FC543F540C59F
:1002A80044F541684268610008F6D9F461000CF62B
:1002B800DAF4DEC4F6F4DDC4F7F40800F550750A84
:1002C800D8A44AD0610008F6D9F461000CF6DAF433
:1002D800DE2A000EDD22610010F6D9F4610014F662
:1002E800DAF461007CF335F5020EDE2661007CF35A
:1002F80036F5000EDD226100D4F4D9F46100D8F49B
:10030800DAF4610078F337F5610074F338F537C52E
:1003180086F538C587F5886B896B8A6B8B6B8C6B18
:100328008D6B80C560F581C561F586C562F587C5A9
:1003380063F588C564F589C565F58AC566F58BC515
:1003480067F58CC568F58DC569F55FEC00F060C58B
:1003580080F561C581F51200610008F6D9F46100E5
:100368000CF6DAF4DEC4F6F4DDC4F7F40800F55050
:10037800250AD8A419D0610008F6D9F461000CF652
:10038800DAF4DE2A000EDD22000E1B6E250E1A6E30
:1003980080C51CF581C51DF52BEC07F0000E050185
:1003A800816F010E806F1200610008F6D9F46100B8
:1003B8000CF6DAF4DE2A000EDD22000E816F000E44
:1003C800806F1200610008F6D9F461000CF6DAF4C7
:1003D800DEC4F6F4DDC4F7F40800F5501A6E1B6AA3
:1003E80080C51CF581C51DF52BEC07F0610008F6EA
:1003F800D9F461000CF6DAF4DE2A000EDD22CED73D
:1004080022EC0AF0020E0AEC0AF08B0E966F3E0EF2
:10041800976FDBEC09F0A10E966F3E0E976FDBEC41
:1004280009F0B70E966F3E0E976FDBEC09F0F30EEE
:10043800966F3E0E976FDBEC09F0140E966F3E0E2A
:10044800976FDBEC09F0900E966F3D0E976FDBEC23
:1004580009F0030E0AEC0AF0AB0E966F3D0E976F8B
:10046800DBEC09F0E00E966F3D0E976FDBEC09F0C0
:100478002D0E966F3E0E976FDBEC09F0010E0AEC1D
:100488000AF02D0E966F3E0E976FDBEC09F02D0EDD
:10049800966F3E0E976FDBEC09F0FA0E966F3D0EE5
:1004A800976FDBEC09F0050E0AEC0AF0590E966F0F
:1004B8003D0E976FDBEC09F0590E966F3D0E976F66
:1004C800DBEC09F0900E966F3D0E976FDBEC09F0B0
:1004D800040E0AEC0AF0750E966F3D0E976FDBEC72
:1004E80009F0C60E966F3D0E976FDBEC09F0460ECD
:1004F800966F3E0E976FDBEC09F0520E966F3F0E2B
:10050800976FDBEC09F0070E0AEC0AF01F0E966FE6
:100518003D0E976F0A0E196E0B0E98EC08F0050148
:100528009E6F9E51986F996B0A0E196E0B0EC6EC52
:1005380009F005019F6F9F519A6F9B6BDBEC09F0E7
:100548001200000EA06F85D022EC0AF0060E966FFE
:100558003F0E976FDBEC09F009EC05F0010E0AEC91
:100568000AF0DE0E966F3F0E976FDBEC09F0020E75
:100578000AEC0AF0890E966F3F0E976FDBEC09F0D4
:10058800030E0AEC0AF0540E966F3F0E976FDBECE1
:1005980009F0040E0AEC0AF0A20E966F3F0E976F50
:1005A800DBEC09F0050E0AEC0AF0370E966F3F0EE9
:1005B800976FDBEC09F0060E0AEC0AF0AE0E966FA8
:1005C8003F0E976FDBEC09F0070E0AEC0AF07C0E81
:1005D800966F3F0E976FDBEC09F03E500AEC0AF07D
:1005E800170E966F3F0E976FDBEC09F04AEC0AF096
:1005F8000009D8B4FBD722EC09F00501A06F310E31
:10060800A019D8A402D0010E3E6E320EA019D8A4AB
:1006180002D0020E3E6E330EA019D8A402D0030EEB
:100628003E6E340EA019D8A402D0040E3E6E350ECC
:10063800A019D8A402D0050E3E6E360EA019D8A473
:1006480002D0060E3E6E370EA019D8A402D0070EAF
:100658003E6E1B0EA019D8A477D710EC08F0120034
:1006680021EE29F1070EDE6AE806FDE2215022108C
:10067800231024102510261027102810D8B446D08F
:10068800010E316E0AD0D890213622362336243610
:100698002536263627362836312A28AEF4D7D8907C
:1006A80029362A362B362C362D362E362F3630362E
:1006B8002150195C22501A5823501B5824501C589A
:1006C80025501D5826501E5827501F58285020586E
:1006D800D8A011D02150195E22501A5A23501B5A03
:1006E80024501C5A25501D5A26501E5A27501F5A4E
:1006F8002850205A2980D89028322732263225328D
:100708002432233222322132312EC9D729C519F594
:100718002AC51AF52BC51BF52CC51CF52DC51DF5CD
:100728002EC51EF52FC51FF530C520F51200000196
:10073800669DAC90AC92AC94BE80C690100E02013F
:10074800016FC686030E726F000EAB6FAB8FAB8B5B
:10075800AB89000EAC6F000EAD6FAD8F11D08A0E55
:10076800AE6F000E0BD0150EAE6F010E07D0400E07
:10077800AE6F030E03D0820EAE6F060EAF6F21D0A0
:100788001AC51CF51BC51DF51D50000AD8B407D0A5
:10079800020AD8B40CD0060AD8B40ED0ECD71C5034
:1007A800600AD8B4E8D7A00AD8B4E1D7E4D71C5077
:1007B800400AD8B4D8D7DFD71C50800AD8B4CFD7CE
:1007C800DAD7000EB06F000EB16F000EB26F000ED8
:1007D800B36F03016B936B956B81000E476E000E30
:1007E800466E000E456EAC80AC840201AC8F110ED3
:1007F80036EC0AF01200000E9E6F53D022EC0AF07D
:10080800CC0E966F3E0E976F3CC598F53DC599F591
:10081800DBEC09F0960E966F3F0E976FDBEC09F054
:10082800620E966F3F0E976FDBEC09F06F0E966FB6
:100838003F0E976FDBEC09F0460E966F3F0E976FF1
:10084800DBEC09F0170E966F3F0E976FDBEC09F0A3
:100858004AEC0AF00009D8B4FBD722EC09F00501EC
:100868009E6F310E9E19D8A404D0000E3D6E600E06
:100878003C6E320E9E19D8A404D0000E3D6EC00EF8
:100888003C6E330E9E19D8A404D0020E3D6E400E65
:100898003C6E340E9E19D8A404D0040E3D6E800E12
:1008A8003C6E1B0E9E19D8A4A9D710EC08F01200B4
:1008B800215022102310241025102610271028104C
:1008C800D8B43CD0010E296E0AD0D89021362236F1
:1008D800233624362536263627362836292A28AEC2
:1008E800F4D72150195C22501A5823501B58245011
:1008F8001C5825501D5826501E5827501F58285040
:100908002058D8A010D02150195E22501A5A2350CE
:100918001B5A24501C5A25501D5A26501E5A27501F
:100928001F5A2850205AD89028322732263225328A
:100938002432233222322132292ED3D719C519F570
:100948001AC51AF51BC51BF51CC51CF51DC51DF5DB
:0E0958001EC51EF51FC51FF520C520F5120097
:10096800CEA43FD0CFAC11D0CFBE38D00201B0B9A1
:1009780004D0000E136E000E03D0000E136E800E0E
:10098800126E610048F4C0F429D0CFAE11D04CECFF
:100998000AF00009D8A404D0000E156E000E03D08A
:1009A800000E156E800E146E610050F4C0F416D05F
:1009B8004CEC0AF00009D8A405D0000E176E000E02
:1009C800166E09D03BEC09F0106E116A800E1010FB
:1009D800166E1150176E610058F4C0F4000EC86E00
:1009E8000CD0CFAC09D0CFBE08D00201B0B905D029
:1009F800D0507F0BA36F01D0CF50B39A010E0001E6
:100A0800D56FD78FD79FC868110031D0E40E966F85
:100A18003F0E976FDBEC09F012008F0E966F3F0EBA
:100A2800976FDBEC09F012005A0E966F3F0E976F26
:100A3800DBEC09F01200A80E966F3F0E976FDBEC07
:100A480009F012003D0E966F3F0E976FDBEC09F030
:100A58001200B40E966F3F0E976FDBEC09F0120090
:100A6800820E966F3F0E976FDBEC09F012003E5036
:100A78009E6F9F6B9F51000AD8A4C8D79E51010A48
:100A8800D8B4C4D7030AD8B4C8D7010AD8B4CCD7C5
:100A9800070AD8B4D0D7010AD8B4D4D7030AD8B42F
:100AA800D8D7010AD8B4DCD7B1D743A00AD02CC50F
:100AB80023F52DC524F52AC525F52BC526F5B5EC56
:100AC80008F02FBE05D02EC533F52FC534F504D058
:100AD800000E346E000E336E000E326E000E316E54
:100AE8000CD0000E1B6E200E1A6E2AC51CF52BC5E5
:100AF8001DF52BEC07F0314A322A3350315C325065
:100B0800800A306E3450800A3058D8A0EAD743B0F3
:100B18000AD02CC523F52DC524F52AC525F52BC5E6
:100B280026F5B5EC08F02CC519F52DC51AF583EC9A
:100B380009F0335019242A6E34501A202B6E1200F3
:100B48001ED0FC0E966F3F0E976FDBEC09F02DD090
:100B5800F60E966F3F0E976FDBEC09F026D0F30E7A
:100B6800966F3F0E976FDBEC09F01FD0F90E966F6A
:100B78003F0E976FDBEC09F0000EA76F16D005014A
:100B8800A72BA7059E6F9F6B9F51000AD8A40DD075
:100B98009E51000AD8B4D5D7010AD8B4D9D7030AC8
:100BA800D8B4DDD7010AD8B4E1D7090E05019F6F83
:100BB8001E0E9E6FE40EE82EFED79E2FFCD79F2FA9
:100BC800FAD700F0F00E0501966F3F0E976FDBEC39
:100BD80009F01200000E9E6F3ED022EC0AF03D0E86
:100BE800966F3D0E976F3BC598F5996BDBEC09F056
:100BF800BA0E966F3F0E976FDBEC09F0C60E966F34
:100C08003F0E976FDBEC09F0D20E966F3F0E976F91
:100C1800DBEC09F0170E966F3F0E976FDBEC09F0CF
:100C28004AEC0AF00009D8B4FBD722EC09F0050118
:100C38009E6F310E9E19D8A402D0010E3B6E320E63
:100C48009E19D8A402D0020E3B6E330E9E19D8A46A
:100C580002D0040E3B6E1B0E9E19D8A4BED710EC12
:100C680008F01200000E0501A16F34D022EC0AF042
:100C78005E0E966F3E0E976FDBEC09F0750E966F61
:100C88003E0E976FDBEC09F0E00E966F3E0E976F05
:100C9800DBEC09F0170E966F3F0E976FDBEC09F04F
:100CA8004AEC0AF00009D8B4FBD722EC09F0050198
:100CB800A16F310EA119D8B4EEEC05F0320E050182
:100CC800A119D8B4FFEC03F0330E0501A119D8B46B
:100CD800A5EC02F01B0E0501A119D8A4C7D7FF0087
:100CE800120000016795010ED56FD69F000ED86FD0
:100CF800010ED96F020EDA6F200EDB6FDC91DC93E8
:100D0800DC95DC97DC99DC9BDC9DDC9FD781DD9151
:100D1800DD93DD95DD97DD99DD9BDD9DDD9FD78337
:100D2800DE91DE93DE95DE97DE99DE9BDE9DDE9F0B
:100D3800D785DF91DF93DF95DF97DF99DF9BDF9D15
:100D4800DF9FD787D651F80B0209D66FD79FD69960
:100D5800D697D68F03016C8BB89AAD9A1200679319
:100D6800000ED56FD69F000ED86F010ED96F020EF8
:100D7800DA6F200EDB6FDC91DC83DC85DC97DC9995
:100D8800DC9BDC8DDC9FD781DD91DD93DD95DD97E4
:100D9800DD99DD9BDD9DDD9FD783DE91DE93DE95BA
:100DA800DE97DE99DE9BDE9DDE9FD785DF91DF93A0
:100DB800DF95DF97DF99DF9BDF9DDF9FD787D651D0
:100DC800F80B0209D66FD79FD689D697D68F03011D
:100DD800678BB39AA88A1200000E0401046F000EF4
:100DE8000C6F000E146F000E006F000E086F000EDF
:100DF800106F000E016F000E096F000E116F000ECC
:100E0800036F000E0B6F000E136F000E026F000EC3
:100E18000A6F000E126F0183C682010E02013E6F37
:100E2800D69003016891B490A980C684C698BE88FC
:100E3800260E0201056FC69ABE9AC7880C0E616F0E
:100E4800C78A0D0E626FC78EC78CC86812001C5007
:100E58001D10D8B404D01C501D10D8A404D01A50AA
:100E680036EC0AF0120020EE09F01C50D9261D506D
:100E7800DA22DE50DE10D8B416D020EE09F01C506D
:100E8800D9261D50DA2210EE03F01C50E1261D5021
:100E9800E222DE50E65CE650800A226EDE50800ACE
:100EA8002258D8B0120020EE03F01C50D9261D504D
:100EB800DA22DE2A000EDD2212002DEC0AF0EDEC1B
:100EC80008F0B3EC06F075EC06F035EC08F03CC51C
:100ED8001AF53DC51BF59BEC03F0D68ED68C090E92
:100EE8000501A46F1E0EA36FE40EE82EFED7A32FF4
:100EF800FCD7A42FFAD700F004EC02F06CEC09F050
:100F08003E500AEC0AF00D0E36EC0AF09AEC09F0A5
:100F180000F0FED790C594F591C595F5000EA66F23
:100F2800000EA56F13D08EC580F58FC581F5940E80
:100F3800826F050E836F92C584F593C585F535ECF0
:100F480001F005018051A5278151A623610050F6C3
:100F5800F6F4610054F6F7F40800F5500009D8A437
:100F6800E2D7A5C58EF5A6C58FF512001B6E1B50DE
:100F7800D8B424D00001399F0DD03951F80B060997
:100F880007D03951F80B050903D03951F80B04097A
:100F9800396F12D01B50196E1A6A1A50000AD8A459
:100FA800ECD71950010AD8B4E8D7030AD8B4E9D75E
:100FB800060AD8B4EAD7E1D7398F12000001399F61
:100FC8001200000ED6BE010E1F6E19C51CF51AC5FB
:100FD8001DF51E6A000E1C24436F000E1D20446F71
:100FE800380E1E20456F61006CF446F04151F80B35
:100FF8000309416FD69E550E426FAA0E426F40817B
:1010080040B1FED741511FB002D0D69E01D0D68E36
:10101800F80E000141171200050E226E1DD03A0E7F
:101028002224D96EDA6A050EDA2222C519F51A6A5F
:10103800B0EC09F0216EDE502118D8B40DD022C5CD
:1010480019F51A6A3A0E2224D96EDA6A050EDA22DE
:10105800DF501B6EE5EC07F022062228D8B41200F8
:10106800DED7050E236E0CD03A0E2324D96EDA6A29
:10107800050EDA2223C519F51A6AB0EC09F0DF6EFD
:1010880023062328D8A4F0D70B0E3A18D8B4120098
:101098000B0E3A6E070E3E6E000E3D6EC00E3C6E95
:1010A800010E3B6E10EC08F0120001EE00F210EE9B
:1010B80000F1EE6AE550E150FCE1E250FAE101EEA0
:1010C800A5F1230EEE6AE806FDE101EE3AF10E0EF7
:1010D800EE6AE806FDE10401080E5D6F000E5E6F22
:1010E800000E5F6F000EF86E000161EF07F0D68A00
:1010F800000ED6BE010E196ED69E550E0401596F0C
:10110800AA0E596F5991000E5F6F000E5E6F080EA0
:101118005D6F550E596FAA0E596F598119B002D0DB
:10112800D69E01D0D68E12001A6E000E1C6E195073
:10113800D8B415D0010E1B6E03D0D89019361B2ACF
:1011480019AEFBD7D8901C3619501A5CD8A003D01A
:1011580019501A5E1C80D89019321B2EF3D71C50D8
:101168001200000E296E000E286E0BD027C51AF546
:101178001B6A25C51CF526C51DF52BEC07F0284A6A
:10118800292A28502324D96E29502420DA6EDF50CA
:10119800276E2750D8B41200E9D79F0E096EFF0EAC
:1011A8000A6E07C50BF508C50CF509500B260A5041
:1011B8000C220C5009E11A0E0B5CD8B005D05F0E5A
:1011C8000714076E086A120007C507F508C508F571
:1011D80012000001659B6A9F6B996B810B0E6E6F05
:1011E800040E6D6F0C0E6C6F6A996A8F6393399F4A
:1011F800000E3A6F3951F80B0609396F3951E70B70
:061208001009396F12000D
:10121000452A000E4724D96EDA6A060EDA226000EB
:1012200084FA07F5086AD1EC08F00750DF6E472A08
:10123000C00E4518D8A403D0130E3EEC0AF00201EC
:10124000B29311004550D8A402D0000E12004506FA
:10125000400E4518D8A403D0110E36EC0AF0462AE9
:1012600046041A6E1B6A000E1A24D96E060E1B2045
:10127000DA6EDF5012004550D8A402D0000E1200E2
:101280004506400E4518D8A403D0110E3EEC0AF0D6
:10129000462A46040E6E0F6A000E0E24D96E060E04
:1012A0000F20DA6EDF5012009F0E036EFF0E046EE9
:1012B00001C505F502C506F50350052604500622B2
:1012C000065006E11A0E055CD8B002D0010E01D01E
:1012D000000E016E026A1200140EA26F0FD04AECCB
:1012E0000AF00009D8B408D022EC09F0200AD8A4EA
:1012F000120036EC06F01200A4EC05F0A207A229B9
:10130000D8B41200ECD719C51BF51AC51CF502D0CC
:10131000194A1A2A610064F4D9F4610068F4DAF415
:10132000DF50D8A4F5D71B50195C196E1C501A5801
:101330001A6E1200CEA2FED7680E1C6EE40EE82EC6
:10134000FED71C2EFCD700D03B50BAEC07F02A0E7B
:101350001C6E8E0EE82EFED71C2EFCD7BE8A120005
:1013600019C51BF51AC51CF51D6A000E1B240001CA
:10137000436F000E1C20446F380E1D20456FF80E81
:101380004117408140B1FED7465112001A6E080E37
:101390001B6E000E1C6ED8901A341C341C6ED89034
:1013A0001A3619501C5CD8A002D019501C5E1B2E96
:1013B000F2D71C501200980E9C6F050E9D6F000E08
:1013C0008E6F000E8F6F96C590F597C591F59C0EA8
:1013D000926F050E936F8EEC07F012000001639F71
:1013E000638D638B638963976383638164696569D4
:1013F0006669676968691200600E0001AD6F000ED2
:10140000AF6F000EB36F080EB16F000EB06F000E1D
:10141000AC6F1200396EE90E0501966F3F0E976FA3
:1014200039C598F5996BDBEC09F01200610060F3A7
:1014300018F5000E0201B26FAC9FAC8F610060F432
:10144000D8F41100270E0501966F3F0E976FDBEC65
:1014500009F03E500AEC0AF01200FCEC09F07BECBB
:1014600008F0EEEC09F0F0EC06F01200196E020143
:10147000B0B9FDD7610064F4A3F212000D6E020151
:10148000B0B9FDD7610034F4A3F21200B490BE9A53
:0C149000FF0011004550120045501200F2
:103D1E00000D202020202043524142204150504C83
:103D2E00452042494F53205625752E257520000DEE
:103D3E000950524F434553534F522053504545441B
:103D4E00203A202575204D487A0D000D2020202088
:103D5E002023232323232323232323232323232328
:103D6E00232323232323000D202020202020202363
:103D7E002323232323232323232323232323232305
:103D8E0023000D2020202020202323232323232340
:103D9E00232323232323232323232323000D202024
:103DAE0020202023232323232323232323232323DE
:103DBE0023232323232323000D2020202020202013
:103DCE0020232323232323232323232323232323B8
:103DDE0023000D20202020202323232323232323ED
:103DEE002323232323232323232323000D202020D7
:103DFE002023232323232323232323232323232388
:103E0E002323232323000D202020202020202023C5
:103E1E002323232323202020232323232323000DA6
:103E2E002020202023232323232323232323232360
:103E3E0023232323232323000D2020202020202092
:103E4E002020232323232320202020232323230069
:103E5E000D0931202D2050524F434553534F5220C0
:103E6E0053504545440D000D0932202D2055415229
:103E7E0054204241554420524154450D000D2020FE
:103E8E002020202020202020202020202020202024
:103E9E002023000D20202020202020202020202044
:103EAE002020202020232323000D2020202020202E
:103EBE0020202020202020202023232323000D0932
:103ECE00424155442052415445203A202575303008
:103EDE000D000D0933202D205445585420434F4CCE
:103EEE004F55520D000D2020202020202020202074
:103EFE0020202020202323000D0954455854204310
:103F0E004F4C4F5552203A20000D095B4553435DEF
:103F1E00202D20455849540D001B5B306D1B5B3224
:103F2E004A1B5B481B5B316D000D0935202D204D62
:103F3E004147454E54410D000D0934202D2031319D
:103F4E00353230300D000D0933202D2059454C4CA3
:103F5E004F570D000D0932202D2031393230300DE2
:103F6E00000D0933202D2035373630300D000D0968
:103F7E0037202D2057484954450D000D0932202D6C
:103F8E0020475245454E0D000D0931202D20393662
:103F9E0030300D000D0934202D20424C55450D00BA
:103FAE000D0936202D204359414E0D000D093120AB
:103FBE002D20314D487A0D000D0932202D20324D25
:103FCE00487A0D000D0933202D20344D487A0D000E
:103FDE000D0931202D205245440D001B5B332575F4
:103FEE006D00082000082D00082F00085C00087CDA
:023FFE000000C1
:020000040020DA
:10000000FF0FFF0FFF0FFF0FFF0FFF0FFF0FFF0F80
:10001000FF0FFF0FFF0FFF0FFF0FFF0FFF0FFF0F70
:10002000FF0FFF0FFF0FFF0FFF0FFF0FFF0FFF0F60
:10003000FF0FFF0FFF0FFF0FFF0FFF0FFF0FFF0F50
:020000040030CA
:0A0000008CDDECD79FC6FFFFFFFF69
:00000001FF
